:020000040800F2
:1000000030090020ED010008F5010008F7010008A3
:10001000F9010008FB010008FD01000800000000D4
:10002000000000000000000000000000FF010008C8
:100030000102000800000000030200080502000899
:10004000070200080702000807020008070200086C
:10005000070200080702000807020008070200085C
:10006000070200080702000807020008070200084C
:10007000070200080702000807020008070200083C
:10008000070200080702000807020008070200082C
:10009000070200080702000807020008B903000869
:1000A000070200080702000807020008070200080C
:1000B00007020008070200080702000807020008FC
:1000C00007020008070200080702000807020008EC
:1000D00007020008070200080702000807020008DC
:1000E00007020008070200080702000800000000DD
:1000F0000000000000000000000000000000000000
:1001000000000000000000000702000807020008CD
:10011000070200080702000807020008070200089B
:10012000070200080702000807020008070200088B
:10013000070200080702000807020008070200087B
:10014000070200080702000807020008070200086B
:1001500000F002F800F03AF80AA090E8000C82449F
:100160008344AAF10107DA4501D100F02FF8AFF27C
:10017000090EBAE80F0013F0010F18BFFB1A43F085
:10018000010318479C140000BC140000103A24BF5F
:1001900078C878C1FAD8520724BF30C830C144BFEC
:1001A00004680C607047000000230024002500262E
:1001B000103A28BF78C1FBD8520728BF30C148BFCA
:1001C0000B6070471FB51FBD10B510BD00F07AF869
:1001D0001146FFF7F7FF01F02FF800F098F803B48D
:1001E000FFF7F2FF03BC00F09FF8000009488047CA
:1001F00009480047FEE7FEE7FEE7FEE7FEE7FEE709
:10020000FEE7FEE7FEE7FEE704480549054A064B20
:1002100070470000ED0F0008510100083003002076
:100220003009002030050020300500204FF000028A
:100230000429C0F0128010F0030C00F01E80CCF1F5
:10024000040CBCF1020F18BF00F8012BA8BF20F866
:10025000022BA1EB0C0100F010B85FEAC17C24BFB7
:1002600000F8012B00F8012B48BF00F8012B704764
:100270007047704770474FF0000200B51346944630
:100280009646203922BFA0E80C50A0E80C50B1F1EE
:100290002001BFF4F7AF090728BFA0E80C5048BF02
:1002A0000CC05DF804EB890028BF40F8042B08BFA0
:1002B000704748BF20F8022B11F0804F18BF00F89C
:1002C000012B7047754600F02BF8AE4605006946D5
:1002D000534620F00700854618B020B5FFF794FF7D
:1002E000BDE820404FF000064FF000074FF0000837
:1002F0004FF0000B21F00701AC46ACE8C009ACE8B8
:10030000C009ACE8C009ACE8C0098D46704710B51B
:100310000446AFF300802046BDE81040FFF75FBF02
:1003200000487047D002002001491820ABBEFEE70C
:1003300026000200704721B1026842F0010202600B
:1003400004E002684FF6FE731A400260704710B571
:100350000022026847F6F0739A430C6A8B682343C5
:100360000C6923434C6923438C692343CC692343A1
:100370004C6A23438C6A23431A430260CB68436070
:100380000B6883604B68C36010BD00210160416051
:100390008160C160016141618161C161016241624D
:1003A00081627047034800E0401CB0F5FA4FFBDB68
:1003B000704700000083FFFF10B5202000F08CF88C
:1003C00088B100F005FB00F0BFFA0021084600F0FC
:1003D000E9FA2FA1012000F0D1FA00F065FC2020FD
:1003E00000F074F852E0402000F076F878B100F0A8
:1003F000ABFA0021084600F0D5FA28A1012000F050
:10040000BDFA00F051FC402000F060F83EE0802092
:1004100000F062F878B100F097FA0021084600F089
:10042000C1FA21A1012000F0A9FA00F03DFC8020D2
:1004300000F04CF82AE04FF4807000F04DF880B1E5
:1004400000F082FA0021084600F0ACFA19A1012060
:1004500000F094FA00F028FC4FF4807000F036F8B9
:1004600014E04FF4007000F037F878B100F06CFA47
:100470000021084600F096FA11A1012000F07EFA52
:1004800000F012FC4FF4007000F020F810BD0000E6
:10049000455854495F4C696E6535000045585449CC
:1004A0005F4C696E65360000455854495F4C696E73
:1004B00065370000455854495F4C696E6538000047
:1004C000455854495F4C696E653900000149086020
:1004D0007047000014040140014600200022074B31
:1004E0001B6803EA0102054B14331B680B4013B170
:1004F0000AB1012000E00020704700000004014024
:10050000002123498279002A3AD00A4612680368FA
:100510009A430B461A600A1D126803689A430B1D22
:100520001A60027911440A6803681A430A60184A7B
:100530000832126803689A43154B08331A601A1D73
:10054000126803689A43124B0C331A604279102ADE
:100550000ED11A1F126803681A430D4B08331A6034
:100560001A1D126803681A43094B0C331A600DE018
:100570000749427911440A6803681A430A6005E092
:10058000027911440A6803689A430A6070470000C0
:100590000004014030B500228B071C0F0F2303FA23
:1005A00004F20B4B8C1053F824309343084C8D10FD
:1005B00044F8253023468C1053F824308C07240F40
:1005C00000FA04F42343024C8D1044F8253030BD6A
:1005D000080001402DE9F0410246002500260020D8
:1005E00000230024002791F803C00CF00F0591F8B8
:1005F00003C00CF0100CBCF1000F03D091F802C046
:100600004CEA050591F800C0BCF1000F31D0146828
:1006100000202BE04FF0010C0CFA00F3B1F800C001
:100620000CEA03069E4220D183004FF00F0C0CFA17
:1006300003F7BC4305FA03FC4CEA040491F803C039
:10064000BCF1280F06D14FF0010C0CFA00FCC2F8E7
:1006500014C00AE091F803C0BCF1480F05D14FF077
:10066000010C0CFA00FCC2F810C0401C0828D1D3C1
:100670001460B1F800C0BCF1FF0F34DD54680020F5
:100680002EE000F1080C4FF0010808FA0CF3B1F865
:1006900000C00CEA03069E4221D183004FF00F0CEC
:1006A0000CFA03F7BC4305FA03FC4CEA040491F886
:1006B00003C0BCF1280F05D100F1080C08FA0CF8B2
:1006C000C2F8148091F803C0BCF1480F07D100F1C3
:1006D000080C4FF0010808FA0CF8C2F81080401C12
:1006E0000828CED35460BDE8F08100001FB5012179
:1006F000082000F08DFB0121084600F089FB4FF433
:100700007870ADF80C0002208DF80E0028208DF8CE
:100710000F0003A91A48FFF75DFF05210120FFF72D
:1007200039FF06210120FFF735FF07210120FFF7E0
:1007300031FF08210120FFF72DFF09210120FFF7DC
:1007400029FF4FF47870019001208DF80A000020F5
:100750008DF808000C208DF8090001A8FFF7D0FEE5
:1007600017208DF8000001208DF803008DF801009E
:1007700000208DF80200684600F0F2FA1FBD00006C
:10078000000C01402DE9F04307460A46694800681D
:10079000DFF8A4C1DCF800C0604505DA65480068F0
:1007A000DFF894C1CCF80000202A05DB7F2A03DCA7
:1007B000A2F12000C2B206E0C02A03DBA2F1600071
:1007C000C2B200E05F22012F1BD1002316E002EB32
:1007D0008200DFF868C16044C05C40064FEA106CDC
:1007E0005448D0F800800068401CDFF84891C9F8F0
:1007F0000000534800F808C0581CC3B2052BE6DBC4
:100800006BE0022F69D14B480068A0F154044A48BC
:100810000068844201DA48480460002C02DA0120B2
:10082000BDE8F083002349E002EB8200DFF80CC151
:100830006044C05C4006010E01F0010000EB400581
:1008400001F0020000EB400045EA400501F0040021
:1008500000EB400045EA800501F0080000EB400095
:1008600045EAC000C5B2091101F0010000EB4006E5
:1008700001F0020000EB400046EA400601F00400EF
:1008800000EB400046EA800601F0080000EB400063
:1008900046EAC000C6B22046641CDFF8A4C00CF8CB
:1008A00000502046641C0CF8005004F152000CF873
:1008B0000060401C0CF80060581CC3B2052BB3DB71
:1008C0001C4800680B304FF4FC7C90FBFCF80CFBE0
:1008D0001800DFF860C0CCF8000016480068DFF8A8
:1008E00064C0DCF800C0604505DD12480068DFF830
:1008F00054C0CCF800000020DFF844C0DFF834809A
:10090000D8F800800CF808000A48006840F2F71C8C
:10091000604506D10020DFF81CC0CCF800000220A2
:100920007EE704480068401CDFF808C0CCF80000EF
:10093000002075E70C0000200400002000130008D0
:10094000380000200800002010B54FF4FC71074863
:10095000FFF76CFC00200649086040F2F7100549DB
:10096000086001200449087010BD00003800002014
:10097000040000200800002010000020F0B5074609
:100980000C46267809E031463846FFF7FBFE05465F
:10099000012D00D1F0BD641C2678002EF3D100207B
:1009A000F8E7000002460D2A01DC052901DD0120DF
:1009B000704702EB42004000C1EBC10303EB43036D
:1009C00000EB8300014B18600020F1E70C000020D1
:1009D00010B52948006840F0010027490860084622
:1009E000006840F0010008600846006840F004001C
:1009F00008600846006840F0020008600846006889
:100A000040F0080008600846006840F010000860E8
:100A1000FFF7C8FC1848001D006840F001001649A7
:100A2000091D0860FFF7BEFC1348006840F0010094
:100A3000114908600846006840F002000860002183
:100A4000212000F0F1F80021C82000F0EDF800218D
:100A5000062000F0E9F80021132000F0E5F800215D
:100A6000202000F0E1F800210C2000F0DDF8FFF775
:100A70006BFF00F019F910BD100801402DE9FF4F80
:100A8000074688460398A0EB08050298C41B002D72
:100A900003DA6D424FF0FF3B01E04FF0010B002CF9
:100AA00003DA64424FF0FF3A01E04FF0010A6400BC
:100AB0006D00414638460D9A00F072F88146B9F152
:100AC000000F03D0484604B0BDE8F08FAC421CDDF7
:100AD000A5EB640615E0002E04DB08EB0B0000F02C
:100AE000FF08361B07EB0A00C7B22E4441463846C2
:100AF0000D9A00F055F88146B9F1000F01D0484633
:100B0000E1E702988742E6D11BE0A4EB650615E019
:100B1000002E03DB07EB0A00C7B2761B08EB0B00C5
:100B200000F0FF082644414638460D9A00F038F898
:100B30008146B9F1000F01D04846C4E703988045CB
:100B4000E6D10120014908700020BCE71000002018
:100B50002DE9F84105460E4614461F46DDF81C8077
:100B6000701CC3B22819C2B2314628460097FFF75D
:100B700085FF701C2044C3B2681C2044C2B23146B9
:100B800028460097FFF77AFF3019C3B2681CC2B23B
:100B9000314628460097FFF771FFBDE8F881000055
:100BA000F0B506461446542E01DA302901DB012047
:100BB000F0BDCF1701EB5777FF10C7EBC70707EB67
:100BC000470706EB8702CF1701EB5777FF10A1EB22
:100BD000C707FDB21148835C1CB90120A8408343BC
:100BE0000CE0012C04D10120A8401843C3B205E059
:100BF000022C03D10120A8405840C3B207488354B7
:100C000007480068824201DA05480260054800682A
:100C1000824201DD034802600020C9E7380000205D
:100C2000040000200800002010B50A461D4B1B6878
:100C300043F002031B4C2360012A06D1231F1B68CB
:100C400043F00403241F236005E0164B1B6843F0A8
:100C50000403144C2360002121E000F0800343B121
:100C6000104B1B1F1B6843F008030E4C241F23600E
:100C700005E00C4B1B6843F008030A4C2360430655
:100C8000180E084B1B6843F01003064C2360231F0B
:100C90001B6843F01003241F23604B1CD9B20829A2
:100CA000DBDB10BD1408014070B52948006800283E
:100CB00003DA00202649086008E025480068B0F5FE
:100CC000FC7F03DB40F2F7102149086021480068EF
:100CD000002803DA00201F49086008E01D4800686A
:100CE000B0F5FC7F03DB40F2F7101A4908601848A2
:100CF0000068542190FBF1F201FB1200C0B240F0F9
:100D0000800500212846FFF78FFF11480068542115
:100D100090FBF1F0C0B240F0400500212846FFF7FB
:100D200083FF0B48046805E00B49085D0121FFF7CC
:100D30007BFF641C074800688442F5DD40F2F71031
:100D4000034908600020034908600449087070BD29
:100D500004000020080000203800002010000020BF
:100D600070B5002100230F22C47804B3154C246809
:100D700004F4E064C4F5E064210AC1F10403CA404C
:100D8000447804FA03F184781440214309010E4C9D
:100D90000678A155047804F01F050124AC400578BD
:100DA0006D11AD0005F1E025C5F8004109E00478BA
:100DB00004F01F050124AC40044D0678761145F877
:100DC000264070BD0CED00E000E400E080E100E0B2
:100DD00029B1064A52690243044B5A6104E0034AAE
:100DE00052698243014B5A61704700000010024073
:100DF00029B1064AD2690243044BDA6104E0034A8E
:100E0000D2698243014BDA61704700000010024052
:100E100029B1064A92690243044B9A6104E0034AED
:100E200092698243014B9A617047000000100240B2
:100E300030B500210022002400232D4D6D6805F0FF
:100E40000C0121B1042905D0082923D105E0294D41
:100E5000056022E0274D05601FE0254D6D6805F413
:100E60007012234D6D6805F48034022505EB924223
:100E70001CB9214D554305600BE01D4D6D6805F40F
:100E800000351DB11C4D5543056002E0194D554319
:100E9000056002E0174D056000BF00BF144D6D688E
:100EA00005F0F0010909154D6B5C0568DD404560F2
:100EB0000F4D6D6805F4E061090A104D6B5C4568E3
:100EC000DD4085600A4D6D6805F46051C90A0B4D1F
:100ED0006B5C4568DD40C560054D6D6805F44041BB
:100EE000890B074D6B5CC568B5FBF3F5056130BD3B
:100EF0000010024000127A0000093D00210000208D
:100F00003100002010B500F001F810BD0CB5002034
:100F1000019000903348006840F480303149086007
:100F200000BF3048006800F4003000900198401C79
:100F30000190009818B90198B0F5A06FF1D1294837
:100F4000006800F4003010B10120009001E00020A2
:100F500000900098012843D12348006840F0100019
:100F6000214908600846006820F003000860084630
:100F7000006840F0020008601A484068194948605B
:100F80000846406848600846406840F48060486011
:100F90000846406820F47C1048600846406840F4E9
:100FA000E81048600846006840F08070086000BFA4
:100FB0000C48006800F000700028F9D0094840682B
:100FC00020F00300074948600846406840F00200EE
:100FD000486000BF0348406800F00C000828F9D1C1
:100FE0000CBD0000001002400020024010B5134864
:100FF000006840F001001149086008464068104947
:1010000008400E494860084600680E4908400B49F0
:1010100008600846006820F48020086008464068A0
:1010200020F4FE0048604FF41F008860FFF76AFF5D
:101030004FF000600449086010BD0000001002403D
:101040000000FFF8FFFFF6FE08ED00E021B1828905
:1010500042F40052828104E082894DF6FF731A4007
:10106000828170471AB1838A0B43838202E0838AAC
:101070008B438382704700002DE9F04786B0054618
:101080000E460024A24600BFA1460027B08900B149
:1010900000BF2F462C8A4CF6FF700440F0880443B2
:1010A0002C82AC894EF6F3100440B0883189084395
:1010B000718908430443AC81AC8A4FF6FF40044079
:1010C000B0890443AC8201A8FFF7B2FE1F488742F3
:1010D00002D1DDF810A001E0DDF80CA0A88900F431
:1010E000004040B10AEBCA0000EB0A103168490029
:1010F000B0FBF1F807E00AEBCA0000EB0A10316818
:101100008900B0FBF1F86420B8FBF0F0040120097D
:10111000642101FB1089A88900F4004040B132200D
:1011200000EBC900B0FBF1F000F00700044308E059
:10113000322000EB09106421B0FBF1F000F00F0049
:1011400004432C8106B0BDE8F08700000038014060
:1011500000B58BB001210846FFF73AFE6846FFF75D
:1011600014F90D4800900D480190002002902020B5
:1011700008905020039000200490802005900020CB
:101180000690079069460648FFF7E1F801210448F8
:10119000FFF7D1F80BB000BD043801403002002049
:1011A000580002400EB501211D20FFF731FE1F201F
:1011B000ADF8080010208DF80B0003208DF80A0010
:1011C00002A91B48FFF706FA4FF48060ADF804004F
:1011D00004208DF8070001A91548FFF7FBF94FF42B
:1011E0000070ADF8040003208DF8060018208DF87B
:1011F000070001A90E48FFF7EDF94FF40060ADF8C4
:10120000000004208DF8030069460A48FFF7E2F960
:101210004FF48060ADF8000003208DF80200182024
:101220008DF8030069460348FFF7D4F90EBD0000AE
:1012300000080140000C014008B500F010F8FFF76D
:10124000C7FBFFF781FB0120034603222321009007
:101250003720FFF77DFC01E0FFF726FDFCE710B526
:10126000FFF7A0FF00F008F800F02AF8FFF770FF82
:10127000FFF73CFA10BD00001FB501218803FFF7FE
:10128000C7FD4FF4165000900020ADF80400ADF8F3
:101290000600ADF80800ADF80C000C20ADF80A000F
:1012A00069460648FFF7E8FE012240210348FFF7A0
:1012B000D9FE01210148FFF7C9FE1FBD00380140DA
:1012C0001FB501218804FFF793FD4FF416500090DD
:1012D0000020ADF80400ADF80600ADF80800ADF848
:1012E0000C000C20ADF80A0069460448FFF7C4FE64
:1012F00001210248FFF7AAFE1FBD00000048004080
:10130000000000000000005F00000007000700145C
:101310007F147F14242A7F2A124C2C1068643649CB
:101320005522500005030000001C2241000041220C
:101330001C0014083E081408083E0808000050303D
:10134000001010101010006060000020100804024F
:101350003E5149453E00427F40004261514946218D
:1013600041454B311814127F1027454545393C4AF9
:101370004949300171090503364949493606494949
:10138000291E00363600000056360000081422419F
:101390000014141414140041221408020151090607
:1013A000324979413E7E1111117E7F494949363ECD
:1013B000414141227F4141221C7F494949417F09E6
:1013C0000909013E4149497A7F0808087F00417FA9
:1013D00041002040413F017F081422417F404040AE
:1013E000407F020C027F7F0408107F3E4141413E56
:1013F0007F090909063E4151215E7F0919294646A8
:101400004949493101017F01013F4040403F1F20D0
:1014100040201F3F4038403F6314081463070870A2
:1014200008076151494543007F414100020408100B
:10143000200041417F00040201020440404040403E
:10144000000102040020545454787F484444383842
:1014500044444420384444487F3854545418087E47
:101460000901020C5252523E7F0804047800447D68
:1014700040002040443D007F1028440000417F4050
:10148000007C041804787C08040478384444443808
:101490007C14141408081414187C7C0804040848EC
:1014A00054545420043F4440203C4040207C1C20A5
:1014B00040201C3C4030403C44281028440C5050F4
:1014C000503C4464544C44000836410000007F0006
:1014D0000000413608000804081008FFFFFFFFFF66
:1014E0007C1211127C7F494949317F494949367F35
:1014F00001010101603F213F607F4949494177086F
:101500007F087722414949367F1008047F7E100901
:10151000047E7F08142241403E01017F7F020C02BD
:101520007F7F0808087F3E4141413E7F0101017FE6
:101530007F090909063E4141412201017F0101075E
:101540004848483F0E117F110E63140814633F2072
:10155000203F60070808087F7F407E407F3F203F94
:10156000207F017F4848307F4830007F007F484817
:1015700030224149493E7F083E413E462919097FB4
:1015800020545454783C4A4A4A317C545428007CB4
:1015900004040C00603C243C6038545454186C1013
:1015A0007C106C00445454287C2010087C7C211250
:1015B000097C7C10284400403804047C7C08100816
:1015C0007C7C1010107C38444444387C0404047C37
:1015D0007C14141408384444440004047C04040CAF
:1015E0005050503C08147C140844281028443C20D7
:1015F000203C600C1010107C7C407C407C3C203CEB
:10160000207C047C5050207C5020007C007C50507A
:101610002028445454387C10384438485434147CBE
:101620004016000800000020380000008C0100086F
:101630007816000838000020F8080000A80100080B
:10164000000000000000000000000000000000009A
:10165000003031323334353637383900000000007D
:101660000000000000010203040102030406070851
:08167000090204060800000055
:04000005080001ED01
:00000001FF
