:020000040800F2
:1000000050090020ED010008F5010008F701000883
:10001000F9010008FB010008FD01000800000000D4
:10002000000000000000000000000000FF010008C8
:100030000102000800000000030200080502000899
:10004000070200080702000807020008070200086C
:10005000070200080702000807020008070200085C
:10006000070200080702000807020008070200084C
:10007000070200080702000807020008070200083C
:10008000070200080702000807020008070200082C
:10009000070200080702000807020008B903000869
:1000A000070200080702000807020008070200080C
:1000B00007020008070200080702000807020008FC
:1000C00007020008070200080702000807020008EC
:1000D00007020008070200080702000807020008DC
:1000E00007020008070200080702000800000000DD
:1000F0000000000000000000000000000000000000
:1001000000000000000000000702000807020008CD
:10011000070200080702000807020008070200089B
:10012000070200080702000807020008070200088B
:10013000070200080702000807020008070200087B
:10014000070200080702000807020008070200086B
:1001500000F002F800F03AF80AA090E8000C82449F
:100160008344AAF10107DA4501D100F02FF8AFF27C
:10017000090EBAE80F0013F0010F18BFFB1A43F085
:1001800001031847FC1100001C120000103A24BFA4
:1001900078C878C1FAD8520724BF30C830C144BFEC
:1001A00004680C607047000000230024002500262E
:1001B000103A28BF78C1FBD8520728BF30C148BFCA
:1001C0000B6070471FB51FBD10B510BD00F07AF869
:1001D0001146FFF7F7FF01F001F800F098F803B4BB
:1001E000FFF7F2FF03BC00F09FF8000009488047CA
:1001F00009480047FEE7FEE7FEE7FEE7FEE7FEE709
:10020000FEE7FEE7FEE7FEE704480549054A064B20
:1002100070470000750F00085101000850030020CE
:100220005009002050050020500500204FF000022A
:100230000429C0F0128010F0030C00F01E80CCF1F5
:10024000040CBCF1020F18BF00F8012BA8BF20F866
:10025000022BA1EB0C0100F010B85FEAC17C24BFB7
:1002600000F8012B00F8012B48BF00F8012B704764
:100270007047704770474FF0000200B51346944630
:100280009646203922BFA0E80C50A0E80C50B1F1EE
:100290002001BFF4F7AF090728BFA0E80C5048BF02
:1002A0000CC05DF804EB890028BF40F8042B08BFA0
:1002B000704748BF20F8022B11F0804F18BF00F89C
:1002C000012B7047754600F02BF8AE4605006946D5
:1002D000534620F00700854618B020B5FFF794FF7D
:1002E000BDE820404FF000064FF000074FF0000837
:1002F0004FF0000B21F00701AC46ACE8C009ACE8B8
:10030000C009ACE8C009ACE8C0098D46704710B51B
:100310000446AFF300802046BDE81040FFF75FBF02
:1003200000487047EC02002001491820ABBEFEE7F0
:1003300026000200704721B1026842F0010202600B
:1003400004E002684FF6FE731A400260704710B571
:100350000022026847F6F0739A430C6A8B682343C5
:100360000C6923434C6923438C692343CC692343A1
:100370004C6A23438C6A23431A430260CB68436070
:100380000B6883604B68C36010BD00210160416051
:100390008160C160016141618161C161016241624D
:1003A00081627047034800E0401CB0F5FA4FFBDB68
:1003B000704700000083FFFF10B5202000F03EF8DA
:1003C00030B1052000F086FF202000F031F82EE04B
:1003D0004FF4807000F032F838B1082000F07AFF56
:1003E0004FF4807000F024F821E04FF4007000F02A
:1003F00025F838B1092000F06DFF4FF4007000F0CF
:1004000017F814E0402000F019F830B1062000F091
:1004100061FF402000F00CF809E0802000F00EF8A9
:1004200028B1072000F056FF802000F001F810BD31
:100430000149086070470000140401400146002093
:100440000022074B1B6803EA0102054B14331B68AB
:100450000B4013B10AB1012000E0002070470000FA
:1004600000040140002123498279002A3AD00A463B
:10047000126803689A430B461A600A1D12680368E3
:100480009A430B1D1A60027911440A6803681A43E3
:100490000A60184A0832126803689A43154B0833F9
:1004A0001A601A1D126803689A43124B0C331A60C3
:1004B0004279102A0ED11A1F126803681A430D4B95
:1004C00008331A601A1D126803681A43094B0C336B
:1004D0001A600DE00749427911440A6803681A431B
:1004E0000A6005E0027911440A6803689A430A60C9
:1004F000704700000004014030B500228B071C0F3C
:100500000F2303FA04F20B4B8C1053F8243093435F
:10051000084C8D1044F8253023468C1053F82430B5
:100520008C07240F00FA04F42343024C8D1044F886
:10053000253030BD080001402DE9F041024600257C
:100540000026002000230024002791F803C00CF0AF
:100550000F0591F803C00CF0100CBCF1000F03D094
:1005600091F802C04CEA050591F800C0BCF1000FFB
:1005700031D0146800202BE04FF0010C0CFA00F38E
:10058000B1F800C00CEA03069E4220D183004FF070
:100590000F0C0CFA03F7BC4305FA03FC4CEA040405
:1005A00091F803C0BCF1280F06D14FF0010C0CFAF2
:1005B00000FCC2F814C00AE091F803C0BCF1480F77
:1005C00005D14FF0010C0CFA00FCC2F810C0401C21
:1005D0000828D1D31460B1F800C0BCF1FF0F34DD9E
:1005E000546800202EE000F1080C4FF0010808FAD2
:1005F0000CF3B1F800C00CEA03069E4221D183003F
:100600004FF00F0C0CFA03F7BC4305FA03FC4CEA5D
:10061000040491F803C0BCF1280F05D100F1080CC7
:1006200008FA0CF8C2F8148091F803C0BCF1480F26
:1006300007D100F1080C4FF0010808FA0CF8C2F8D5
:100640001080401C0828CED35460BDE8F081000023
:100650001FB50121082000F09FFB0121084600F092
:100660009BFB4FF47870ADF80C0002208DF80E0063
:1006700028208DF80F0003A91A48FFF75DFF052118
:100680000120FFF739FF06210120FFF735FF072181
:100690000120FFF731FF08210120FFF72DFF09217D
:1006A0000120FFF729FF4FF47870019001208DF8A9
:1006B0000A0000208DF808000C208DF8090001A820
:1006C000FFF7D0FE17208DF8000001208DF8030001
:1006D0008DF8010000208DF80200684600F004FB50
:1006E0001FBD0000000C014010B54FF4FC7107481D
:1006F000FFF79CFD00200649086040F2F71005490D
:10070000086001200449087010BD0000540000205A
:10071000080000200C0000201400002010B529481B
:10072000006840F00100274908600846006840F072
:10073000010008600846006840F0040008600846B0
:10074000006840F0020008600846006840F00800B9
:1007500008600846006840F010000860FFF722FEBD
:100760001848001D006840F001001649091D086086
:10077000FFF718FE1348006840F0010011490860B7
:100780000846006840F0020008600021212000F0C7
:100790000FFA0021C82000F00BFA0021062000F01B
:1007A00007FA0021132000F003FA0021202000F0B6
:1007B000FFF900210C2000F0FBF9FFF795FF00F096
:1007C00037FA10BD100801402DE9FF4F0746884653
:1007D0000398A0EB08050298C41B002D03DA6D42B4
:1007E0004FF0FF3B01E04FF0010B002C03DA6442B5
:1007F0004FF0FF3A01E04FF0010A64006D004146FE
:1008000038460D9A00F090F98146B9F1000F03D0F7
:10081000484604B0BDE8F08FAC421CDDA5EB640691
:1008200015E0002E04DB08EB0B0000F0FF08361B80
:1008300007EB0A00C7B22E44414638460D9A00F035
:1008400073F98146B9F1000F01D04846E1E70298FB
:100850008742E6D11BE0A4EB650615E0002E03DB22
:1008600007EB0A00C7B2761B08EB0B0000F0FF088D
:100870002644414638460D9A00F056F98146B9F1B2
:10088000000F01D04846C4E703988045E6D1012017
:10089000014908700020BCE7140000202DE9F8434E
:1008A00005460C4617461E46DDF8209001200090B4
:1008B000A4F10900C3B2A81CC2B2A4F10900C1B2DC
:1008C0002846FFF781FFB9F1010F13D10120A4F1F0
:1008D000080C0CF0FF0305F1030C0CF0FF02A4F16F
:1008E000080C0CF0FF01A5F1010C00900CF0FF00CA
:1008F000FFF76AFF01200090A4F10800C3B2A81C12
:10090000C2B2A4F10800C1B22846FFF75DFF012082
:100910000090E01FC3B2A81CC2B2E01FC1B22846BB
:10092000FFF752FF0120A4F1060C0CF0FF0305F1C4
:10093000010C0CF0FF02A4F1060C0CF0FF0105F114
:10094000010C00900CF0FF00FFF73EFF012000902B
:10095000601EC3B2601FC1B22A462846FFF734FFAB
:100960000120A4F1010C0CF0FF0305F1010C0CF0C7
:10097000FF02A4F1050C0CF0FF0105F1010C009041
:100980000CF0FF00FFF720FF0120A4F1010C0CF098
:10099000FF0305F1020C0CF0FF02A4F1050C0CF0B2
:1009A000FF0105F1020C00900CF0FF00FFF70CFFB7
:1009B0003EBB0120A4F1020C0CF0FF0305F1050C75
:1009C0000CF0FF02A4F1050C0CF0FF0105F1030C83
:1009D00000900CF0FF00FFF7F7FE0120A4F1020CDD
:1009E0000CF0FF03A5F1030C0CF0FF02A4F1050CC1
:1009F0000CF0FF01A5F1010C00900CF0FF00FFF7D7
:100A0000E3FE012E3BD1012F39D10120A4F1040CCA
:100A10000CF0FF0305F1060C0CF0FF02A4F1040C2E
:100A20000CF0FF0105F1030C00900CF0FF00FFF744
:100A3000CBFE0120A4F1050C0CF0FF0305F1080C1E
:100A40000CF0FF02A4F1050C0CF0FF0105F1050C00
:100A500000900CF0FF00FFF7B7FE4FF00A080BE024
:100A6000621FD1B205EB0802D0B2012200F05CF89F
:100A700008F104004FFA80F8B8F1320FF0DD012ED2
:100A80003AD1CFBB0120A4F1040C0CF0FF03A5F177
:100A9000040C0CF0FF02A4F1040C0CF0FF01A5F112
:100AA000010C00900CF0FF00FFF78EFE0120A4F176
:100AB000050C0CF0FF03A5F1060C0CF0FF02A4F1ED
:100AC000050C0CF0FF01A5F1030C00900CF0FF00E9
:100AD000FFF77AFE6FF007080BE0621FD1B205EB5B
:100AE0000802D0B2012200F01FF8A8F104004FFA6A
:100AF00080F818F1320FF0DA0120E11CCBB2291D89
:100B0000CAB2A91C0090C8B22146FFF75DFE0120C1
:100B10000090E01CC3B2A81EC2B221462846FFF7CF
:100B200053FE0020BDE8F883F0B506461446542E67
:100B300001DA302901DB0120F0BDCF1701EB577737
:100B4000FF10C7EBC70707EB470706EB8702CF1776
:100B500001EB5777FF10A1EBC707FDB21148835C8B
:100B60001CB90120A84083430CE0012C04D10120D2
:100B7000A8401843C3B205E0022C03D10120A840CD
:100B80005840C3B20748835407480068824201DADC
:100B90000548026005480068824201DD03480260A2
:100BA0000020C9E754000020080000200C000020AD
:100BB00010B50A461D4B1B6843F002031B4C236013
:100BC000012A06D1231F1B6843F00403241F23605E
:100BD00005E0164B1B6843F00403144C236000210E
:100BE00021E000F0800343B1104B1B1F1B6843F052
:100BF00008030E4C241F236005E00C4B1B6843F0D8
:100C000008030A4C23604306180E084B1B6843F088
:100C10001003064C2360231F1B6843F01003241F9E
:100C200023604B1CD9B20829DBDB10BD140801403E
:100C300070B529480068002803DA002026490860BA
:100C400008E025480068B0F5FC7F03DB40F2F710B0
:100C50002149086021480068002803DA00201F4964
:100C6000086008E01D480068B0F5FC7F03DB40F237
:100C7000F7101A49086018480068542190FBF1F2F7
:100C800001FB1200C0B240F0800500212846FFF7AA
:100C90008FFF11480068542190FBF1F0C0B240F082
:100CA000400500212846FFF783FF0B48046805E054
:100CB0000B49085D0121FFF77BFF641C07480068B2
:100CC0008442F5DD40F2F710034908600020034933
:100CD00008600449087070BD080000200C00002066
:100CE000540000201400002070B5002100230F22C2
:100CF000C47804B3154C246804F4E064C4F5E064DB
:100D0000210AC1F10403CA40447804FA03F184784B
:100D10001440214309010E4C0678A155047804F0D3
:100D20001F050124AC4005786D11AD0005F1E025EB
:100D3000C5F8004109E0047804F01F050124AC4027
:100D4000044D0678761145F8264070BD0CED00E0A4
:100D500000E400E080E100E029B1064A5269024364
:100D6000044B5A6104E0034A52698243014B5A61C1
:100D7000704700000010024029B1064AD2690243C0
:100D8000044BDA6104E0034AD2698243014BDA6121
:100D9000704700000010024029B1064A92690243E0
:100DA000044B9A6104E0034A92698243014B9A61C1
:100DB000704700000010024030B5002100220024DE
:100DC00000232D4D6D6805F00C0121B1042905D0DB
:100DD000082923D105E0294D056022E0274D056053
:100DE0001FE0254D6D6805F47012234D6D6805F404
:100DF0008034022505EB92421CB9214D5543056014
:100E00000BE01D4D6D6805F400351DB11C4D5543BB
:100E1000056002E0194D5543056002E0174D05607D
:100E200000BF00BF144D6D6805F0F0010909154DB4
:100E30006B5C0568DD4045600F4D6D6805F4E06151
:100E4000090A104D6B5C4568DD4085600A4D6D6890
:100E500005F46051C90A0B4D6B5C4568DD40C56007
:100E6000054D6D6805F44041890B074D6B5CC56805
:100E7000B5FBF3F5056130BD0010024000127A00A9
:100E800000093D00250000203500002010B500F0CD
:100E900001F810BD0CB500200190009033480068A7
:100EA00040F480303149086000BF3048006800F4E9
:100EB000003000900198401C0190009818B90198EA
:100EC000B0F5A06FF1D12948006800F4003010B1EE
:100ED0000120009001E0002000900098012843D1FB
:100EE0002348006840F01000214908600846006867
:100EF00020F0030008600846006840F00200086027
:100F00001A484068194948600846406848600846E1
:100F1000406840F4806048600846406820F47C10D7
:100F200048600846406840F4E81048600846006899
:100F300040F08070086000BF0C48006800F000704E
:100F40000028F9D00948406820F0030007494860AC
:100F50000846406840F00200486000BF034840680F
:100F600000F00C000828F9D10CBD00000010024070
:100F70000020024010B51348006840F001001149FC
:100F8000086008464068104908400E494860084615
:100F900000680E4908400B4908600846006820F4C4
:100FA000802008600846406820F4FE0048604FF446
:100FB0001F008860FFF76AFF4FF000600449086077
:100FC00010BD0000001002400000FFF8FFFFF6FE19
:100FD00008ED00E021B1828942F40052828104E0F0
:100FE00082894DF6FF731A40828170471AB1838A55
:100FF0000B43838202E0838A8B4383827047000025
:101000002DE9F04786B005460E460024A24600BFF3
:10101000A1460027B08900B100BF2F462C8A4CF6AC
:10102000FF700440F08804432C82AC894EF6F31024
:101030000440B08831890843718908430443AC8176
:10104000AC8A4FF6FF400440B0890443AC8201A84B
:10105000FFF7B2FE1F48874202D1DDF810A001E081
:10106000DDF80CA0A88900F4004040B10AEBCA00EA
:1010700000EB0A1031684900B0FBF1F807E00AEB19
:10108000CA0000EB0A1031688900B0FBF1F8642057
:10109000B8FBF0F004012009642101FB1089A88944
:1010A00000F4004040B1322000EBC900B0FBF1F089
:1010B00000F00700044308E0322000EB091064212F
:1010C000B0FBF1F000F00F0004432C8106B0BDE846
:1010D000F08700000038014000B58BB001210846C0
:1010E000FFF73AFE6846FFF750F90D4800900D48AB
:1010F00001900020029020200890502003900020B2
:1011000004908020059000200690079069460648CC
:10111000FFF71DF901210448FFF70DF90BB000BDE1
:10112000043801404C0200205800024008B5024833
:1011300000680068009008BD480000200148006871
:1011400000787047400000200EB501211D20FFF7F8
:1011500023FE1F20ADF8080010208DF80B0003209F
:101160008DF80A0002A91B48FFF7E6F94FF48060EA
:10117000ADF8040004208DF8070001A91548FFF719
:10118000DBF94FF40070ADF8040003208DF8060081
:1011900018208DF8070001A90E48FFF7CDF94FF48C
:1011A0000060ADF8000004208DF8030069460A488D
:1011B000FFF7C2F94FF48060ADF8000003208DF80E
:1011C000020018208DF8030069460348FFF7B4F9C0
:1011D0000EBD000000080140000C014000F080F846
:1011E000FFF79CFAFFF780FA06E0FFF77DFA01208F
:1011F00000F004F8FFF71CFDF7E70000F8B505461E
:101200000024FFF793FF009008480099016000F068
:101210000FF804460120054E0090F378B2787178FB
:101220003078FFF73BFB0020F8BD000000000020F5
:1012300030B5244802680068431C22480068851CB9
:1012400020480068C41CFFF779FF401F052836D2EC
:10125000DFE800F00327320F1A001078002805DDC0
:101260001078401E107000202870207000F02CF8BC
:1012700025E01878002804DD1878401E187000203A
:10128000207000F021F81AE01078502806DA107863
:10129000401C1070012028700020207000F014F80D
:1012A0000DE018782C2804DA1878401C18700020FB
:1012B000207000F009F802E00120207030BD00BF6E
:1012C0000020FBE74800002000B5002000F002F8F5
:1012D00000BD000001490968087070474000002007
:1012E00010B5FFF731FF00F007F800F029F8FFF71D
:1012F000F3FEFFF7ADF910BD1FB501218803FFF71D
:101300004BFD4FF4165000900020ADF80400ADF8EE
:101310000600ADF80800ADF80C000C20ADF80A008E
:1013200069460648FFF76CFE012240210348FFF79B
:101330005DFE01210148FFF74DFE1FBD0038014051
:101340001FB501218804FFF717FD4FF416500090D8
:101350000020ADF80400ADF80600ADF80800ADF8C7
:101360000C000C20ADF80A0069460448FFF748FE5F
:1013700001210248FFF72EFE1FBD0000004800407B
:10138000A013000800000020540000008C01000899
:10139000F413000854000020FC080000A801000815
:1013A000000000000000000000000000000000003D
:1013B0000000000000303132333435363738390020
:1013C000000000000000000000010203040102030D
:1013D00004060708090204060800000000000000D7
:1013E0003C000020282A00004400002001000000EA
:0413F0004C0000208D
:04000005080001ED01
:00000001FF
