:020000040800F2
:1000000048090020ED010008F5010008F70100088B
:10001000F9010008FB010008FD01000800000000D4
:10002000000000000000000000000000FF010008C8
:100030000102000800000000030200080502000899
:10004000070200080702000807020008070200086C
:10005000070200080702000807020008070200085C
:10006000070200080702000807020008070200084C
:10007000070200080702000807020008070200083C
:10008000070200080702000807020008070200082C
:10009000070200080702000807020008B903000869
:1000A000070200080702000807020008070200080C
:1000B00007020008070200080702000807020008FC
:1000C00007020008070200080702000807020008EC
:1000D00007020008070200080702000807020008DC
:1000E00007020008070200080702000800000000DD
:1000F0000000000000000000000000000000000000
:1001000000000000000000000702000807020008CD
:10011000070200080702000807020008070200089B
:10012000070200080702000807020008070200088B
:10013000070200080702000807020008070200087B
:10014000070200080702000807020008070200086B
:1001500000F002F800F03AF80AA090E8000C82449F
:100160008344AAF10107DA4501D100F02FF8AFF27C
:10017000090EBAE80F0013F0010F18BFFB1A43F085
:1001800001031847A80F0000C80F0000103A24BF51
:1001900078C878C1FAD8520724BF30C830C144BFEC
:1001A00004680C607047000000230024002500262E
:1001B000103A28BF78C1FBD8520728BF30C148BFCA
:1001C0000B6070471FB51FBD10B510BD00F07AF869
:1001D0001146FFF7F7FF00F0EBFE00F098F803B4CC
:1001E000FFF7F2FF03BC00F09FF8000009488047CA
:1001F00009480047FEE7FEE7FEE7FEE7FEE7FEE709
:10020000FEE7FEE7FEE7FEE704480549054A064B20
:1002100070470000350D0008510100084803002018
:100220004809002048050020480500204FF0000242
:100230000429C0F0128010F0030C00F01E80CCF1F5
:10024000040CBCF1020F18BF00F8012BA8BF20F866
:10025000022BA1EB0C0100F010B85FEAC17C24BFB7
:1002600000F8012B00F8012B48BF00F8012B704764
:100270007047704770474FF0000200B51346944630
:100280009646203922BFA0E80C50A0E80C50B1F1EE
:100290002001BFF4F7AF090728BFA0E80C5048BF02
:1002A0000CC05DF804EB890028BF40F8042B08BFA0
:1002B000704748BF20F8022B11F0804F18BF00F89C
:1002C000012B7047754600F02BF8AE4605006946D5
:1002D000534620F00700854618B020B5FFF794FF7D
:1002E000BDE820404FF000064FF000074FF0000837
:1002F0004FF0000B21F00701AC46ACE8C009ACE8B8
:10030000C009ACE8C009ACE8C0098D46704710B51B
:100310000446AFF300802046BDE81040FFF75FBF02
:1003200000487047E402002001491820ABBEFEE7F8
:1003300026000200704721B1026842F0010202600B
:1003400004E002684FF6FE731A400260704710B571
:100350000022026847F6F0739A430C6A8B682343C5
:100360000C6923434C6923438C692343CC692343A1
:100370004C6A23438C6A23431A430260CB68436070
:100380000B6883604B68C36010BD00210160416051
:100390008160C160016141618161C161016241624D
:1003A00081627047034800E0401CB0F5FA4FFBDB68
:1003B000704700000083FFFF10B5202000F03EF8DA
:1003C00030B1052000F05CFE202000F031F82EE076
:1003D0004FF4807000F032F838B1082000F050FE81
:1003E0004FF4807000F024F821E04FF4007000F02A
:1003F00025F838B1092000F043FE4FF4007000F0FA
:1004000017F814E0402000F019F830B1062000F091
:1004100037FE402000F00CF809E0802000F00EF8D4
:1004200028B1072000F02CFE802000F001F810BD5C
:100430000149086070470000140401400146002093
:100440000022074B1B6803EA0102054B14331B68AB
:100450000B4013B10AB1012000E0002070470000FA
:1004600000040140002123498279002A3AD00A463B
:10047000126803689A430B461A600A1D12680368E3
:100480009A430B1D1A60027911440A6803681A43E3
:100490000A60184A0832126803689A43154B0833F9
:1004A0001A601A1D126803689A43124B0C331A60C3
:1004B0004279102A0ED11A1F126803681A430D4B95
:1004C00008331A601A1D126803681A43094B0C336B
:1004D0001A600DE00749427911440A6803681A431B
:1004E0000A6005E0027911440A6803689A430A60C9
:1004F000704700000004014030B500228B071C0F3C
:100500000F2303FA04F20B4B8C1053F8243093435F
:10051000084C8D1044F8253023468C1053F82430B5
:100520008C07240F00FA04F42343024C8D1044F886
:10053000253030BD080001402DE9F041024600257C
:100540000026002000230024002791F803C00CF0AF
:100550000F0591F803C00CF0100CBCF1000F03D094
:1005600091F802C04CEA050591F800C0BCF1000FFB
:1005700031D0146800202BE04FF0010C0CFA00F38E
:10058000B1F800C00CEA03069E4220D183004FF070
:100590000F0C0CFA03F7BC4305FA03FC4CEA040405
:1005A00091F803C0BCF1280F06D14FF0010C0CFAF2
:1005B00000FCC2F814C00AE091F803C0BCF1480F77
:1005C00005D14FF0010C0CFA00FCC2F810C0401C21
:1005D0000828D1D31460B1F800C0BCF1FF0F34DD9E
:1005E000546800202EE000F1080C4FF0010808FAD2
:1005F0000CF3B1F800C00CEA03069E4221D183003F
:100600004FF00F0C0CFA03F7BC4305FA03FC4CEA5D
:10061000040491F803C0BCF1280F05D100F1080CC7
:1006200008FA0CF8C2F8148091F803C0BCF1480F26
:1006300007D100F1080C4FF0010808FA0CF8C2F8D5
:100640001080401C0828CED35460BDE8F081000023
:100650001FB50121082000F07FFA0121084600F0B3
:100660007BFA4FF47870ADF80C0002208DF80E0084
:1006700028208DF80F0003A91A48FFF75DFF052118
:100680000120FFF739FF06210120FFF735FF072181
:100690000120FFF731FF08210120FFF72DFF09217D
:1006A0000120FFF729FF4FF47870019001208DF8A9
:1006B0000A0000208DF808000C208DF8090001A820
:1006C000FFF7D0FE17208DF8000001208DF8030001
:1006D0008DF8010000208DF80200684600F0E4F972
:1006E0001FBD0000000C014010B54FF4FC7107481D
:1006F000FFF79CFD00200649086040F2F71005490D
:10070000086001200449087010BD00004C00002062
:10071000080000200C0000201400002010B529481B
:10072000006840F00100274908600846006840F072
:10073000010008600846006840F0040008600846B0
:10074000006840F0020008600846006840F00800B9
:1007500008600846006840F010000860FFF722FEBD
:100760001848001D006840F001001649091D086086
:10077000FFF718FE1348006840F0010011490860B7
:100780000846006840F0020008600021212000F0C7
:10079000EFF80021C82000F0EBF80021062000F05F
:1007A000E7F80021132000F0E3F80021202000F0FA
:1007B000DFF800210C2000F0DBF8FFF795FF00F0D8
:1007C00017F910BD100801402DE9FF4F0746884674
:1007D0000398A0EB08050298C41B002D03DA6D42B4
:1007E0004FF0FF3B01E04FF0010B002C03DA6442B5
:1007F0004FF0FF3A01E04FF0010A64006D004146FE
:1008000038460D9A00F070F88146B9F1000F03D018
:10081000484604B0BDE8F08FAC421CDDA5EB640691
:1008200015E0002E04DB08EB0B0000F0FF08361B80
:1008300007EB0A00C7B22E44414638460D9A00F035
:1008400053F88146B9F1000F01D04846E1E702981C
:100850008742E6D11BE0A4EB650615E0002E03DB22
:1008600007EB0A00C7B2761B08EB0B0000F0FF088D
:100870002644414638460D9A00F036F88146B9F1D3
:10088000000F01D04846C4E703988045E6D1012017
:10089000014908700020BCE7140000202DE9F84150
:1008A00005460E4690461C46079F701CC3B2281989
:1008B000C2B2314628460097FFF786FF701C2044DD
:1008C000C3B2681C2044C2B2314628460097FFF7E5
:1008D0007BFF3019C3B2681CC2B23146284600976C
:1008E000FFF772FFBDE8F881F0B506461446542EB6
:1008F00001DA302901DB0120F0BDCF1701EB57777A
:10090000FF10C7EBC70707EB470706EB8702CF17B8
:1009100001EB5777FF10A1EBC707FDB21148835CCD
:100920001CB90120A84083430CE0012C04D1012014
:10093000A8401843C3B205E0022C03D10120A8400F
:100940005840C3B20748835407480068824201DA1E
:100950000548026005480068824201DD03480260E4
:100960000020C9E74C000020080000200C000020F7
:1009700010B50A461D4B1B6843F002031B4C236055
:10098000012A06D1231F1B6843F00403241F2360A0
:1009900005E0164B1B6843F00403144C2360002150
:1009A00021E000F0800343B1104B1B1F1B6843F094
:1009B00008030E4C241F236005E00C4B1B6843F01A
:1009C00008030A4C23604306180E084B1B6843F0CB
:1009D0001003064C2360231F1B6843F01003241FE1
:1009E00023604B1CD9B20829DBDB10BD1408014081
:1009F00070B529480068002803DA002026490860FD
:100A000008E025480068B0F5FC7F03DB40F2F710F2
:100A10002149086021480068002803DA00201F49A6
:100A2000086008E01D480068B0F5FC7F03DB40F279
:100A3000F7101A49086018480068542190FBF1F239
:100A400001FB1200C0B240F0800500212846FFF7EC
:100A50008FFF11480068542190FBF1F0C0B240F0C4
:100A6000400500212846FFF783FF0B48046805E096
:100A70000B49085D0121FFF77BFF641C07480068F4
:100A80008442F5DD40F2F710034908600020034975
:100A900008600449087070BD080000200C000020A8
:100AA0004C0000201400002070B5002100230F220C
:100AB000C47804B3154C246804F4E064C4F5E0641D
:100AC000210AC1F10403CA40447804FA03F184788E
:100AD0001440214309010E4C0678A155047804F016
:100AE0001F050124AC4005786D11AD0005F1E0252E
:100AF000C5F8004109E0047804F01F050124AC406A
:100B0000044D0678761145F8264070BD0CED00E0E6
:100B100000E400E080E100E029B1064A52690243A6
:100B2000044B5A6104E0034A52698243014B5A6103
:100B3000704700000010024029B1064AD269024302
:100B4000044BDA6104E0034AD2698243014BDA6163
:100B5000704700000010024029B1064A9269024322
:100B6000044B9A6104E0034A92698243014B9A6103
:100B7000704700000010024030B500210022002420
:100B800000232D4D6D6805F00C0121B1042905D01D
:100B9000082923D105E0294D056022E0274D056095
:100BA0001FE0254D6D6805F47012234D6D6805F446
:100BB0008034022505EB92421CB9214D5543056056
:100BC0000BE01D4D6D6805F400351DB11C4D5543FE
:100BD000056002E0194D5543056002E0174D0560C0
:100BE00000BF00BF144D6D6805F0F0010909154DF7
:100BF0006B5C0568DD4045600F4D6D6805F4E06194
:100C0000090A104D6B5C4568DD4085600A4D6D68D2
:100C100005F46051C90A0B4D6B5C4568DD40C56049
:100C2000054D6D6805F44041890B074D6B5CC56847
:100C3000B5FBF3F5056130BD0010024000127A00EB
:100C400000093D00250000203500002010B500F00F
:100C500001F810BD0CB500200190009033480068E9
:100C600040F480303149086000BF3048006800F42B
:100C7000003000900198401C0190009818B901982C
:100C8000B0F5A06FF1D12948006800F4003010B130
:100C90000120009001E0002000900098012843D13D
:100CA0002348006840F010002149086008460068A9
:100CB00020F0030008600846006840F00200086069
:100CC0001A48406819494860084640684860084624
:100CD000406840F4806048600846406820F47C101A
:100CE00048600846406840F4E810486008460068DC
:100CF00040F08070086000BF0C48006800F0007091
:100D00000028F9D00948406820F0030007494860EE
:100D10000846406840F00200486000BF0348406851
:100D200000F00C000828F9D10CBD000000100240B2
:100D30000020024010B51348006840F0010011493E
:100D4000086008464068104908400E494860084657
:100D500000680E4908400B4908600846006820F406
:100D6000802008600846406820F4FE0048604FF488
:100D70001F008860FFF76AFF4FF0006004490860B9
:100D800010BD0000001002400000FFF8FFFFF6FE5B
:100D900008ED00E021B1828942F40052828104E032
:100DA00082894DF6FF731A40828170471AB1838A97
:100DB0000B43838202E0838A8B4383827047000067
:100DC0002DE9F04786B005460E460024A24600BF36
:100DD000A1460027B08900B100BF2F462C8A4CF6EF
:100DE000FF700440F08804432C82AC894EF6F31067
:100DF0000440B08831890843718908430443AC81B9
:100E0000AC8A4FF6FF400440B0890443AC8201A88D
:100E1000FFF7B2FE1F48874202D1DDF810A001E0C3
:100E2000DDF80CA0A88900F4004040B10AEBCA002C
:100E300000EB0A1031684900B0FBF1F807E00AEB5B
:100E4000CA0000EB0A1031688900B0FBF1F8642099
:100E5000B8FBF0F004012009642101FB1089A88986
:100E600000F4004040B1322000EBC900B0FBF1F0CB
:100E700000F00700044308E0322000EB0910642171
:100E8000B0FBF1F000F00F0004432C8106B0BDE888
:100E9000F08700000038014000B58BB00121084602
:100EA000FFF73AFE6846FFF770FA0D4800900D48CC
:100EB00001900020029020200890502003900020F4
:100EC000049080200590002006900790694606480F
:100ED000FFF73DFA01210448FFF72DFA0BB000BDE2
:100EE00004380140440200205800024008B5074879
:100EF00000680188ADF8001080788DF8020089B292
:100F000008469DF8021040EA014008BD4800002054
:100F10000148006800787047400000200EB50121AC
:100F20001D20FFF719FE1F20ADF8080010208DF8D6
:100F30000B0003208DF80A0002A91B48FFF7FCFAFA
:100F40004FF48060ADF8040004208DF8070001A97B
:100F50001548FFF7F1FA4FF40070ADF804000320D4
:100F60008DF8060018208DF8070001A90E48FFF73C
:100F7000E3FA4FF40060ADF8000004208DF80300A0
:100F800069460A48FFF7D8FA4FF48060ADF80000D0
:100F900003208DF8020018208DF8030069460348ED
:100FA000FFF7CAFA0EBD000000080140000C014026
:100FB00000F06CF8FFF7B2FBFFF796FB06E0FFF7D7
:100FC00093FB012000F040F8FFF712FDF7E7000067
:100FD00000B51C4802680068431CFFF799FF401FDA
:100FE00005282DD2DFE800F003212B0D1700107823
:100FF000002802DB1078401E1070002000F040F83E
:101000001EE01878002802DB1878401E18700020B7
:1010100000F036F814E01078532802DC1078401CF9
:101020001070002000F02CF80AE018782F2802DC5D
:101030001878401C1870002000F022F800E000BF73
:1010400000BF00BD4800002038B50446FFF74EFF42
:1010500000900A48BDF8001001809DF802108170D0
:10106000FFF7B6FF0120054A00905178107803235E
:101070000122FFF713FC002038BD00000000002013
:1010800001490968087070474000002010B5FFF75B
:1010900045FF00F007F800F029F8FFF7FDFEFFF725
:1010A000D7FA10BD1FB501218803FFF755FD4FF496
:1010B000165000900020ADF80400ADF80600ADF821
:1010C0000800ADF80C000C20ADF80A00694606488F
:1010D000FFF776FE012240210348FFF767FE01215A
:1010E0000148FFF757FE1FBD003801401FB5012121
:1010F0008804FFF721FD4FF4165000900020ADF852
:101100000400ADF80600ADF80800ADF80C000C20A6
:10111000ADF80A0069460448FFF752FE0121024873
:10112000FFF738FE1FBD0000004800404C110008CA
:10113000000000204C0000008C01000898110008FD
:101140004C000020FC080000A8010008000000007E
:10115000000000000000000000000000000000008F
:101160000030313233343536373839000000000072
:101170000000000000010203040102030406070846
:101180000902040608000000000000003C000020E6
:08119000372300004400002099
:04000005080001ED01
:00000001FF
