:020000040800F2
:1000000030090020ED010008F5010008F7010008A3
:10001000F9010008FB010008FD01000800000000D4
:10002000000000000000000000000000FF010008C8
:100030000102000800000000030200080502000899
:10004000070200080702000807020008070200086C
:10005000070200080702000807020008070200085C
:10006000070200080702000807020008070200084C
:10007000070200080702000807020008070200083C
:10008000070200080702000807020008070200082C
:10009000070200080702000807020008070200081C
:1000A000070200080702000807020008070200080C
:1000B00007020008070200080702000807020008FC
:1000C00007020008070200080702000807020008EC
:1000D00007020008070200080702000807020008DC
:1000E00007020008070200080702000800000000DD
:1000F0000000000000000000000000000000000000
:1001000000000000000000000702000807020008CD
:10011000070200080702000807020008070200089B
:10012000070200080702000807020008070200088B
:10013000070200080702000807020008070200087B
:10014000070200080702000807020008070200086B
:1001500000F002F800F03AF80AA090E8000C82449F
:100160008344AAF10107DA4501D100F02FF8AFF27C
:10017000090EBAE80F0013F0010F18BFFB1A43F085
:10018000010318477412000094120000103A24BFB3
:1001900078C878C1FAD8520724BF30C830C144BFEC
:1001A00004680C607047000000230024002500262E
:1001B000103A28BF78C1FBD8520728BF30C148BFCA
:1001C0000B6070471FB51FBD10B510BD00F07AF869
:1001D0001146FFF7F7FF00F001FE00F098F803B4B6
:1001E000FFF7F2FF03BC00F09FF8000009488047CA
:1001F00009480047FEE7FEE7FEE7FEE7FEE7FEE709
:10020000FEE7FEE7FEE7FEE704480549054A064B20
:1002100070470000510B0008510100083003002016
:100220003009002030050020300500204FF000028A
:100230000429C0F0128010F0030C00F01E80CCF1F5
:10024000040CBCF1020F18BF00F8012BA8BF20F866
:10025000022BA1EB0C0100F010B85FEAC17C24BFB7
:1002600000F8012B00F8012B48BF00F8012B704764
:100270007047704770474FF0000200B51346944630
:100280009646203922BFA0E80C50A0E80C50B1F1EE
:100290002001BFF4F7AF090728BFA0E80C5048BF02
:1002A0000CC05DF804EB890028BF40F8042B08BFA0
:1002B000704748BF20F8022B11F0804F18BF00F89C
:1002C000012B7047754600F02BF8AE4605006946D5
:1002D000534620F00700854618B020B5FFF794FF7D
:1002E000BDE820404FF000064FF000074FF0000837
:1002F0004FF0000B21F00701AC46ACE8C009ACE8B8
:10030000C009ACE8C009ACE8C0098D46704710B51B
:100310000446AFF300802046BDE81040FFF75FBF02
:1003200000487047D002002001491820ABBEFEE70C
:1003300026000200704721B1026842F0010202600B
:1003400004E002684FF6FE731A400260704710B571
:100350000022026847F6F0739A430C6A8B682343C5
:100360000C6923434C6923438C692343CC692343A1
:100370004C6A23438C6A23431A430260CB68436070
:100380000B6883604B68C36010BD00210160416051
:100390008160C160016141618161C161016241624D
:1003A00081627047034800E0401CB0F5FA4FFBDB68
:1003B000704700000083FFFF2DE9F0410246002551
:1003C0000026002000230024002791F803C00CF031
:1003D0000F0591F803C00CF0100CBCF1000F03D016
:1003E00091F802C04CEA050591F800C0BCF1000F7D
:1003F00031D0146800202BE04FF0010C0CFA00F310
:10040000B1F800C00CEA03069E4220D183004FF0F1
:100410000F0C0CFA03F7BC4305FA03FC4CEA040486
:1004200091F803C0BCF1280F06D14FF0010C0CFA73
:1004300000FCC2F814C00AE091F803C0BCF1480FF8
:1004400005D14FF0010C0CFA00FCC2F810C0401CA2
:100450000828D1D31460B1F800C0BCF1FF0F34DD1F
:10046000546800202EE000F1080C4FF0010808FA53
:100470000CF3B1F800C00CEA03069E4221D18300C0
:100480004FF00F0C0CFA03F7BC4305FA03FC4CEADF
:10049000040491F803C0BCF1280F05D100F1080C49
:1004A00008FA0CF8C2F8148091F803C0BCF1480FA8
:1004B00007D100F1080C4FF0010808FA0CF8C2F857
:1004C0001080401C0828CED35460BDE8F0810000A5
:1004D00010B54FF4FC710748FFF7A8FE002006494D
:1004E000086040F2F71005490860012004490870CF
:1004F00010BD00003800002004000020080000208B
:100500001000002010B52948006840F0010027497C
:1005100008600846006840F001000860084600686E
:1005200040F0040008600846006840F002000860DF
:100530000846006840F0080008600846006840F07F
:1005400010000860FFF72EFF1848001D006840F0FB
:1005500001001649091D0860FFF724FF13480068D1
:1005600040F00100114908600846006840F00200B0
:1005700008600021212000F0FFF80021C82000F0D1
:10058000FBF80021062000F0F7F80021132000F00E
:10059000F3F80021202000F0EFF800210C2000F0FB
:1005A000EBF8FFF795FF00F05DF910BD1008014072
:1005B000F0B506461446542E01DA302901DB01203D
:1005C000F0BDCF1701EB5777FF10C7EBC70707EB5D
:1005D000470706EB8702CF1701EB5777FF10A1EB18
:1005E000C707FDB21148835C1CB90120A8408343B2
:1005F0000CE0012C04D10120A8401843C3B205E04F
:10060000022C03D10120A8405840C3B207488354AC
:1006100007480068824201DA054802600548006820
:10062000824201DD034802600020C9E73800002053
:1006300004000020080000202DE9F04F87B0064696
:100640000D4617469846DDE9114A64210020139AA9
:1006500000F0FEF9834605EB0800C3B2F019C2B200
:1006600029463046CDF800A000F046F8109810B1A9
:10067000012839D137E0584600F068FD0290A7EB19
:10068000440000F04BFD1B49009000F065FC019018
:10069000029900F06FFD03903019C0B2069028193E
:1006A000C0B20590069800F051FD0190039900F04A
:1006B000F1FB029000F012FD00F0FF0905EB0800CD
:1006C000001BC0B20490BBF1640F03D109F101001B
:1006D00000F0FF09CDF800A04A46DDE90431069894
:1006E00000F08AF800BF00BF00BF584607B0BDE861
:1006F000F08F00000000C8422DE9F043074688460D
:1007000015461E46DDF81C90542F06DA542D04DAE7
:10071000B8F1300F01DA302E02DB0120BDE8F083A2
:10072000BD4224DD464522DD3C460BE04A464146BB
:100730002046FFF73DFF4A4631462046FFF738FF87
:10074000601CC4B2AC42F1DD44460BE04A4621468F
:100750003846FFF72DFF4A4621462846FFF728FF77
:10076000601CC4B2B442F1DD0120024908700020CF
:10077000D4E700001000002010B50A461D4B1B688E
:1007800043F002031B4C2360012A06D1231F1B6880
:1007900043F00403241F236005E0164B1B6843F05D
:1007A0000403144C2360002121E000F0800343B1D6
:1007B000104B1B1F1B6843F008030E4C241F2360C3
:1007C00005E00C4B1B6843F008030A4C236043060A
:1007D000180E084B1B6843F01003064C2360231FC0
:1007E0001B6843F01003241F23604B1CD9B2082957
:1007F000DBDB10BD140801402DE9F04F04460D4627
:1008000017469846DDF824B0542C01DA302D02DB6F
:100810000120BDE8F08FA8451FDDA7421DDD2E4653
:1008200014E0A1460EE05A4631464846FFF7C0FEA6
:100830008246BAF1000F01D05046EAE709F1010003
:1008400000F0FF09B945EEDB701CC6B24645E8DD95
:100850000120034908700020DBE70020D9E70000F1
:100860001000002070B529480068002803DA002035
:100870002649086008E025480068B0F5FC7F03DBE6
:1008800040F2F7102149086021480068002803DA87
:1008900000201F49086008E01D480068B0F5FC7F93
:1008A00003DB40F2F7101A49086018480068542129
:1008B00090FBF1F201FB1200C0B240F08005002174
:1008C0002846FFF759FF11480068542190FBF1F0CA
:1008D000C0B240F0400500212846FFF74DFF0B480D
:1008E000046805E00B49085D0121FFF745FF641C22
:1008F000074800688442F5DD40F2F71003490860BC
:100900000020034908600449087070BD04000020FD
:1009100008000020380000201000002029B1064AFD
:1009200052690243044B5A6104E0034A526982430C
:10093000014B5A61704700000010024029B1064A7D
:10094000D2690243044BDA6104E0034AD26982436C
:10095000014BDA61704700000010024029B1064ADD
:1009600092690243044B9A6104E0034A926982430C
:10097000014B9A61704700000010024030B5002121
:100980000022002400232D4D6D6805F00C0121B1DB
:10099000042905D0082923D105E0294D056022E06E
:1009A000274D05601FE0254D6D6805F47012234D3D
:1009B0006D6805F48034022505EB92421CB9214D87
:1009C000554305600BE01D4D6D6805F400351DB104
:1009D0001C4D5543056002E0194D5543056002E08A
:1009E000174D056000BF00BF144D6D6805F0F001A4
:1009F0000909154D6B5C0568DD4045600F4D6D685C
:100A000005F4E061090A104D6B5C4568DD408560C6
:100A10000A4D6D6805F46051C90A0B4D6B5C456861
:100A2000DD40C560054D6D6805F44041890B074DFB
:100A30006B5CC568B5FBF3F5056130BD0010024085
:100A400000127A0000093D00210000203100002042
:100A500003469A4201DA184670478A4201DD084689
:100A6000FAE71046F8E710B500F002F810BD0000F4
:100A70000CB50020019000903348006840F48030AD
:100A80003149086000BF3048006800F40030009031
:100A90000198401C0190009818B90198B0F5A06F1A
:100AA000F1D12948006800F4003010B10120009015
:100AB00001E0002000900098012843D123480068FD
:100AC00040F01000214908600846006820F003004B
:100AD00008600846006840F0020008601A48406854
:100AE000194948600846406848600846406840F434
:100AF000806048600846406820F47C1048600846E2
:100B0000406840F4E81048600846006840F0807093
:100B1000086000BF0C48006800F000700028F9D0A1
:100B20000948406820F003000749486008464068CB
:100B300040F00200486000BF0348406800F00C002D
:100B40000828F9D10CBD000000100240002002402E
:100B500010B51348006840F00100114908600846CC
:100B60004068104908400E494860084600680E4930
:100B700008400B4908600846006820F4802008609F
:100B80000846406820F4FE0048604FF41F0088606B
:100B9000FFF769FF4FF000600449086010BD0000D6
:100BA000001002400000FFF8FFFFF6FE08ED00E035
:100BB00021B1828942F40052828104E082894DF69B
:100BC000FF731A40828170471AB1838A0B43838274
:100BD00002E0838A8B438382704700002DE9F0474F
:100BE00086B005460E460024A24600BFA146002757
:100BF000B08900B100BF2F462C8A4CF6FF7004402C
:100C0000F08804432C82AC894EF6F3100440B0887F
:100C100031890843718908430443AC81AC8A4FF69B
:100C2000FF400440B0890443AC8201A8FFF7A6FE50
:100C30001F48874202D1DDF810A001E0DDF80CA0CA
:100C4000A88900F4004040B10AEBCA0000EB0A108A
:100C500031684900B0FBF1F807E00AEBCA0000EB8D
:100C60000A1031688900B0FBF1F86420B8FBF0F09D
:100C700004012009642101FB1089A88900F40040C7
:100C800040B1322000EBC900B0FBF1F000F00700EA
:100C9000044308E0322000EB09106421B0FBF1F0BE
:100CA00000F00F0004432C8106B0BDE8F08700007F
:100CB000003801401FB5044601200221CDE90001A2
:100CC0001E231A460521CDE902040846FFF7B4FCAD
:100CD000002004B010BD000000B58BB00121084613
:100CE000FFF71CFE6846FFF750FB0D4800900D48CB
:100CF00001900020029020200890502003900020B6
:100D000004908020059000200690079069460648D0
:100D1000FFF71DFB01210448FFF70DFB0BB000BDE1
:100D20000438014030020020580002401FB5012164
:100D30001D20FFF713FE1F20ADF80C0010208DF8CA
:100D40000F0003208DF80E0003A92248FFF734FBA3
:100D50004FF48060ADF8080004208DF80B0002A964
:100D60001C48FFF729FB4FF40070ADF80800032082
:100D70008DF80A0018208DF80B0002A91548FFF71E
:100D80001BFB4FF40060ADF8040004208DF8070051
:100D900001A91148FFF710FB4FF48060ADF8040083
:100DA00003208DF8060018208DF8070001A90A48D5
:100DB000FFF702FB4FF47870ADF8000048208DF883
:100DC000030001208DF8020069460348FFF7F4FA9A
:100DD0001FBD000000080140000C014010B500F0EC
:100DE0000BF8FFF78FFBFFF773FB6420FFF762FF41
:100DF000FFF738FD002010BD10B5FFF797FF00F09A
:100E000005F800F027F8FFF767FF10BD1FB50121B7
:100E10008803FFF7A3FD4FF4165000900020ADF8B3
:100E20000400ADF80600ADF80800ADF80C000C2089
:100E3000ADF80A0069460648FFF7D0FE01224021BE
:100E40000348FFF7C1FE01210148FFF7B1FE1FBDB6
:100E5000003801401FB501218804FFF76FFD4FF4F2
:100E6000165000900020ADF80400ADF80600ADF873
:100E70000800ADF80C000C20ADF80A0069460448E3
:100E8000FFF7ACFE01210248FFF792FE1FBD0000F4
:100E90000048004090EA010F48BF81F0004100F196
:100EA0003C82421A3CBF801A89184FEAD0524FF058
:100EB0007F4C1CEA410FA2EBD15318BF9CEA026F92
:100EC00000F03B804FF0004C4CEA00204CEA01213E
:100ED00021FA03FC10EB0C0C1ED202F1FF325FEA88
:100EE0001C2040EBC25038BF70471CF07F0F4FEA08
:100EF000400C18BFBCF17F4F38BF7047C3F12003CF
:100F0000994008BF20F00100BCF17F4F38BF704707
:100F1000A0F1C04000F0F5B94FEA3C00000A40EBF8
:100F2000C25028BF1CF0FF0F4FEA400CE6D018BF9C
:100F3000BCF17F4F38BF7047EAE79CEA026F05D0EB
:100F400010EA5C0F08BF00F00040704710B500F0D9
:100F500092F900BF64FBBE3E4FF47F0C1CEAD01236
:100F60001EBF1CEAD11392EA0C0F93EA0C0F00F09B
:100F7000858090EA010F48BF42F4807240F4000C73
:100F800041F400002CF07F4120F07F4000B5814209
:100F9000A2EB03020FF2081CACEB504EC0F10000B4
:100FA0009EF800E04FEA4E0E00FB0EFC38BF4900F1
:100FB0004FEA2C1C02F5FA020CFB0EF34FEACE1E90
:100FC0004FEA112C4FEAC1210EEB635E42EB224245
:100FD0000EFB0CFC4FEA1C5300FB03114FEA112CD3
:100FE0004FEA01310EFB0CFC4FEADC4C00FB0C110C
:100FF000C14228BF09184CEB03335DF804EB10EB3A
:10100000410143EBC250B2F57C0F38BF704729D580
:1010100012F0F00F1CBF00F1C04000F0004070471C
:10102000008182838485868788898B8C8D8E8F91C1
:101030009293959697999A9C9D9FA0A2A3A5A7A8E5
:10104000AAACAEB0B2B3B5B7B9BCBEC0C2C5C7C911
:10105000CCCED1D4D7D9DCDFE2E6E9ECF0F3F7FA75
:10106000FE0000004FEA400C0CF1807CBCF17E4F8A
:1010700028BF7047B0F1C04000F043B990EA010FBB
:101080000CEAD11348BF42F48072624538BF634511
:1010900007D213F47F0F16D080EA010000F0004061
:1010A000704710B500F0E7F8097EFC3E00F005B887
:1010B00080EA010000F00040704780EA010000F083
:1010C000004000F01EB912F47F0F04BF02487047C1
:1010D00080EA010000F015B90000C07FC10DD1F118
:1010E0009E0206DB4FEA002343F0004323FA02F09E
:1010F0007047004207D54FEA4001B1F1FE4F02D2DE
:101100004FF00000704710B500F0B5F84992248008
:10111000002070476FEA20007047000010F0004187
:1011200048BF4042B0FA80F310FA03F2C3F19D03C6
:101130000BD051EAC35101EB1220530638BF704760
:1011400000F1010008BF20F001007047B0FA80F301
:1011500010FA03F2C3F19D030AD0D90501EB122066
:10116000530638BF704700F1010008BF20F00100AE
:10117000704700004FF47F0C1CEAD0121EBF1CEA1F
:10118000D11392EA0C0F93EA0C0F00F0478090EA1B
:10119000010F48BF42F480724FF0004C4CEA00202F
:1011A0004CEA012102EB0302A0FB0113A2F50002AD
:1011B000002918BF43F001035B0028BF4FEA330347
:1011C00042EB22425FEA132C4CEBC2502EBFBCEB29
:1011D000436FB2F57C0F70474FEA036CBCF1004FD0
:1011E00008BF20F00100B2F57C0F38BF70470BD567
:1011F00082F0FF0212F5803FC8BF704700F1C04087
:10120000D8BF00F00040704700F5000C5FEA4C0CBE
:1012100048BF7047B0F1C04000F073B890EA010FCA
:101220000CEAD11348BF42F48072624538BF63456F
:1012300004D280EA010000F00040704710B500F0D1
:101240001AF800BF8900013E00F007B800F009B8A5
:101250005FEA410C5FEA1C6C08D080EA010000F0F4
:1012600050B85FEA400C5FEA1C6CF6D14FF00040CA
:10127000A0F5800070470EF1020E2EF0030E5EF80E
:10128000044B244204D44FEA4102B2F17F4F11D8FB
:101290004FEA4003B3F17F4F0CD80ED14FEAD07C18
:1012A000B2F17F4F0CEB4C0C0CF1020C08BF4CEB75
:1012B000D17C04E04FF0080C01E04FEAD17C0CEB4C
:1012C0004C0324FA03F404F00704B4F1040C06D22E
:1012D0000EEB840CBDE810404CF0010C6047DFE8D9
:1012E0000CF0070802024FF00040A0F5800010BD8E
:1012F0000846420018BFD2F1807288BF00F000405B
:1013000010BDFF2141EAD050C005704790EA010F9F
:1013100048BF81F000413FF5C4AD421A04D882F0C5
:101320000042A0EB020011444FEAD0524FF07F4C34
:101330001CEA410FA2EBD15318BF9CEA026F4AD0BE
:101340004FF0004C4CEA00204CEA012121FA03FC4A
:10135000B0EB0C0C0FD412F0FE0F36D05FEA4C004D
:101360001DD5001240EBC25038BF70471CF03F0F34
:1013700018BF70470BE0A2F101025FEA1C2040EBAE
:10138000C25038BF70471CF07F0F18BF7047C3F1C1
:101390002003994014BF401E20F0010070478008D0
:1013A0004FEA122308BF7047B0FA80FCA2EB0C0290
:1013B000CCF1280C60FA0CF093EA122F04BF00EB7A
:1013C000C25070474FEAC3707047130A5FEADC10DF
:1013D00008BF7047F6E79CEA026F04D010EA5C0F82
:1013E00008BF0020704710B5FFF745FF40DFF63E0D
:1013F00081F0004070470000181400080000002031
:10140000380000008C01000850140008380000204B
:10141000F8080000A801000800000000000000001B
:101420000000000000000000003031323334353657
:1014300037383900000000000000000000010203FE
:10144000040102030406070809020406080000005C
:04000005080001ED01
:00000001FF
